{
  "_format": "hh-sol-artifact-1",
  "contractName": "FreelancePlatform",
  "sourceName": "contracts/FreelancePlatform.sol",
  "abi": [
    {
      "inputs": [
        {
          "internalType": "address",
          "name": "_askTokenAddress",
          "type": "address"
        }
      ],
      "stateMutability": "nonpayable",
      "type": "constructor"
    },
    {
      "anonymous": false,
      "inputs": [
        {
          "indexed": false,
          "internalType": "uint256",
          "name": "oldDuration",
          "type": "uint256"
        },
        {
          "indexed": false,
          "internalType": "uint256",
          "name": "newDuration",
          "type": "uint256"
        }
      ],
      "name": "ExpireDurationUpdated",
      "type": "event"
    },
    {
      "anonymous": false,
      "inputs": [
        {
          "indexed": false,
          "internalType": "uint256",
          "name": "jobId",
          "type": "uint256"
        },
        {
          "indexed": false,
          "internalType": "address",
          "name": "client",
          "type": "address"
        },
        {
          "indexed": false,
          "internalType": "uint256",
          "name": "budget",
          "type": "uint256"
        },
        {
          "indexed": false,
          "internalType": "uint256",
          "name": "createdAt",
          "type": "uint256"
        }
      ],
      "name": "JobCreated",
      "type": "event"
    },
    {
      "anonymous": false,
      "inputs": [
        {
          "indexed": false,
          "internalType": "uint256",
          "name": "jobId",
          "type": "uint256"
        },
        {
          "indexed": false,
          "internalType": "bool",
          "name": "isRefunded",
          "type": "bool"
        }
      ],
      "name": "JobRefunded",
      "type": "event"
    },
    {
      "anonymous": false,
      "inputs": [
        {
          "indexed": false,
          "internalType": "uint256",
          "name": "jobId",
          "type": "uint256"
        },
        {
          "indexed": false,
          "internalType": "enum FreelancePlatform.JobStatus",
          "name": "status",
          "type": "uint8"
        }
      ],
      "name": "JobUpdated",
      "type": "event"
    },
    {
      "anonymous": false,
      "inputs": [
        {
          "indexed": true,
          "internalType": "address",
          "name": "previousOwner",
          "type": "address"
        },
        {
          "indexed": true,
          "internalType": "address",
          "name": "newOwner",
          "type": "address"
        }
      ],
      "name": "OwnershipTransferred",
      "type": "event"
    },
    {
      "anonymous": false,
      "inputs": [
        {
          "indexed": false,
          "internalType": "uint256",
          "name": "oldRate",
          "type": "uint256"
        },
        {
          "indexed": false,
          "internalType": "uint256",
          "name": "newRate",
          "type": "uint256"
        }
      ],
      "name": "RateUpdated",
      "type": "event"
    },
    {
      "inputs": [],
      "name": "askToken",
      "outputs": [
        {
          "internalType": "contract IERC20",
          "name": "",
          "type": "address"
        }
      ],
      "stateMutability": "view",
      "type": "function"
    },
    {
      "inputs": [
        {
          "internalType": "address",
          "name": "newOwner",
          "type": "address"
        }
      ],
      "name": "changeOwner",
      "outputs": [],
      "stateMutability": "nonpayable",
      "type": "function"
    },
    {
      "inputs": [
        {
          "internalType": "uint256",
          "name": "jobId",
          "type": "uint256"
        }
      ],
      "name": "completeJob",
      "outputs": [],
      "stateMutability": "nonpayable",
      "type": "function"
    },
    {
      "inputs": [
        {
          "internalType": "uint256",
          "name": "jobId",
          "type": "uint256"
        },
        {
          "internalType": "address",
          "name": "freelancer",
          "type": "address"
        },
        {
          "internalType": "uint256",
          "name": "budget",
          "type": "uint256"
        }
      ],
      "name": "createJob",
      "outputs": [],
      "stateMutability": "nonpayable",
      "type": "function"
    },
    {
      "inputs": [],
      "name": "getExpireDuration",
      "outputs": [
        {
          "internalType": "uint256",
          "name": "",
          "type": "uint256"
        }
      ],
      "stateMutability": "view",
      "type": "function"
    },
    {
      "inputs": [
        {
          "internalType": "uint256",
          "name": "jobId",
          "type": "uint256"
        }
      ],
      "name": "getJob",
      "outputs": [
        {
          "components": [
            {
              "internalType": "address",
              "name": "client",
              "type": "address"
            },
            {
              "internalType": "address",
              "name": "freelancer",
              "type": "address"
            },
            {
              "internalType": "uint256",
              "name": "budget",
              "type": "uint256"
            },
            {
              "internalType": "uint256",
              "name": "createdAt",
              "type": "uint256"
            },
            {
              "internalType": "bool",
              "name": "isRefunded",
              "type": "bool"
            },
            {
              "internalType": "enum FreelancePlatform.JobStatus",
              "name": "status",
              "type": "uint8"
            }
          ],
          "internalType": "struct FreelancePlatform.Job",
          "name": "",
          "type": "tuple"
        }
      ],
      "stateMutability": "view",
      "type": "function"
    },
    {
      "inputs": [],
      "name": "getRate",
      "outputs": [
        {
          "internalType": "uint256",
          "name": "",
          "type": "uint256"
        }
      ],
      "stateMutability": "view",
      "type": "function"
    },
    {
      "inputs": [
        {
          "internalType": "address",
          "name": "_address",
          "type": "address"
        }
      ],
      "name": "isOwner",
      "outputs": [
        {
          "internalType": "bool",
          "name": "",
          "type": "bool"
        }
      ],
      "stateMutability": "view",
      "type": "function"
    },
    {
      "inputs": [
        {
          "internalType": "uint256",
          "name": "",
          "type": "uint256"
        }
      ],
      "name": "jobs",
      "outputs": [
        {
          "internalType": "address",
          "name": "client",
          "type": "address"
        },
        {
          "internalType": "address",
          "name": "freelancer",
          "type": "address"
        },
        {
          "internalType": "uint256",
          "name": "budget",
          "type": "uint256"
        },
        {
          "internalType": "uint256",
          "name": "createdAt",
          "type": "uint256"
        },
        {
          "internalType": "bool",
          "name": "isRefunded",
          "type": "bool"
        },
        {
          "internalType": "enum FreelancePlatform.JobStatus",
          "name": "status",
          "type": "uint8"
        }
      ],
      "stateMutability": "view",
      "type": "function"
    },
    {
      "inputs": [
        {
          "internalType": "address",
          "name": "",
          "type": "address"
        },
        {
          "internalType": "uint256",
          "name": "",
          "type": "uint256"
        }
      ],
      "name": "jobsFromClient",
      "outputs": [
        {
          "internalType": "uint256",
          "name": "",
          "type": "uint256"
        }
      ],
      "stateMutability": "view",
      "type": "function"
    },
    {
      "inputs": [],
      "name": "owner",
      "outputs": [
        {
          "internalType": "address",
          "name": "",
          "type": "address"
        }
      ],
      "stateMutability": "view",
      "type": "function"
    },
    {
      "inputs": [
        {
          "internalType": "uint256",
          "name": "jobId",
          "type": "uint256"
        }
      ],
      "name": "refundJob",
      "outputs": [],
      "stateMutability": "nonpayable",
      "type": "function"
    },
    {
      "inputs": [
        {
          "internalType": "uint256",
          "name": "newDuration",
          "type": "uint256"
        }
      ],
      "name": "setExpireDuration",
      "outputs": [],
      "stateMutability": "nonpayable",
      "type": "function"
    },
    {
      "inputs": [
        {
          "internalType": "uint256",
          "name": "newRate",
          "type": "uint256"
        }
      ],
      "name": "setRate",
      "outputs": [],
      "stateMutability": "nonpayable",
      "type": "function"
    }
  ],
  "bytecode": "0x60806040523480156200001157600080fd5b5060405162001eba38038062001eba8339818101604052810190620000379190620001b6565b336000806101000a81548173ffffffffffffffffffffffffffffffffffffffff021916908373ffffffffffffffffffffffffffffffffffffffff16021790555060006001819055506201518060028190555060008054906101000a900473ffffffffffffffffffffffffffffffffffffffff1673ffffffffffffffffffffffffffffffffffffffff16600073ffffffffffffffffffffffffffffffffffffffff167f8be0079c531659141344cd1fd0a4f28419497f9722a3daafe3b4186f6b6457e060405160405180910390a380600560006101000a81548173ffffffffffffffffffffffffffffffffffffffff021916908373ffffffffffffffffffffffffffffffffffffffff16021790555050620001e8565b600080fd5b600073ffffffffffffffffffffffffffffffffffffffff82169050919050565b60006200017e8262000151565b9050919050565b620001908162000171565b81146200019c57600080fd5b50565b600081519050620001b08162000185565b92915050565b600060208284031215620001cf57620001ce6200014c565b5b6000620001df848285016200019f565b91505092915050565b611cc280620001f86000396000f3fe608060405234801561001057600080fd5b50600436106100ea5760003560e01c80639541047e1161008c578063bc8be02711610066578063bc8be0271461023a578063bf22c45714610256578063db24e14e14610286578063e0600d62146102b6576100ea565b80639541047e146101e4578063a1c0d32f14610202578063a6f9dae11461021e576100ea565b806334fcf437116100c857806334fcf437146101705780635178f7241461018c578063679aefce146101a85780638da5cb5b146101c6576100ea565b8063180aedf3146100ef5780632d5d0aae146101245780632f54bf6e14610140575b600080fd5b610109600480360381019061010491906112f1565b6102d4565b60405161011b96959493929190611400565b60405180910390f35b61013e600480360381019061013991906112f1565b61036a565b005b61015a6004803603810190610155919061148d565b610682565b60405161016791906114ba565b60405180910390f35b61018a600480360381019061018591906112f1565b6106db565b005b6101a660048036038101906101a191906114d5565b6107b4565b005b6101b0610b5f565b6040516101bd9190611528565b60405180910390f35b6101ce610b69565b6040516101db9190611543565b60405180910390f35b6101ec610b8d565b6040516101f991906115bd565b60405180910390f35b61021c600480360381019061021791906112f1565b610bb3565b005b6102386004803603810190610233919061148d565b610e28565b005b610254600480360381019061024f91906112f1565b610fe9565b005b610270600480360381019061026b91906112f1565b6110c2565b60405161027d919061168f565b60405180910390f35b6102a0600480360381019061029b91906116aa565b611205565b6040516102ad9190611528565b60405180910390f35b6102be611236565b6040516102cb9190611528565b60405180910390f35b60036020528060005260406000206000915090508060000160009054906101000a900473ffffffffffffffffffffffffffffffffffffffff16908060010160009054906101000a900473ffffffffffffffffffffffffffffffffffffffff16908060020154908060030154908060040160009054906101000a900460ff16908060040160019054906101000a900460ff16905086565b60008054906101000a900473ffffffffffffffffffffffffffffffffffffffff1673ffffffffffffffffffffffffffffffffffffffff163373ffffffffffffffffffffffffffffffffffffffff16146103f8576040517f08c379a00000000000000000000000000000000000000000000000000000000081526004016103ef90611747565b60405180910390fd5b60006003600083815260200190815260200160002090508060000160009054906101000a900473ffffffffffffffffffffffffffffffffffffffff1673ffffffffffffffffffffffffffffffffffffffff163373ffffffffffffffffffffffffffffffffffffffff16146104a1576040517f08c379a0000000000000000000000000000000000000000000000000000000008152600401610498906117d9565b60405180910390fd5b8060040160009054906101000a900460ff16156104f3576040517f08c379a00000000000000000000000000000000000000000000000000000000081526004016104ea90611845565b60405180910390fd5b60018160040160006101000a81548160ff02191690831515021790555060028160040160016101000a81548160ff0219169083600381111561053857610537611389565b5b0217905550600560009054906101000a900473ffffffffffffffffffffffffffffffffffffffff1673ffffffffffffffffffffffffffffffffffffffff1663a9059cbb8260000160009054906101000a900473ffffffffffffffffffffffffffffffffffffffff1683600201546040518363ffffffff1660e01b81526004016105c2929190611865565b6020604051808303816000875af11580156105e1573d6000803e3d6000fd5b505050506040513d601f19601f8201168201806040525081019061060591906118ba565b610644576040517f08c379a000000000000000000000000000000000000000000000000000000000815260040161063b90611933565b60405180910390fd5b7f012dfbf7cd66a2415efbdba8004e055af713a756969daf4583de4f975a6fe069826001604051610676929190611953565b60405180910390a15050565b60008060009054906101000a900473ffffffffffffffffffffffffffffffffffffffff1673ffffffffffffffffffffffffffffffffffffffff168273ffffffffffffffffffffffffffffffffffffffff16149050919050565b60008054906101000a900473ffffffffffffffffffffffffffffffffffffffff1673ffffffffffffffffffffffffffffffffffffffff163373ffffffffffffffffffffffffffffffffffffffff1614610769576040517f08c379a000000000000000000000000000000000000000000000000000000000815260040161076090611747565b60405180910390fd5b60006001549050816001819055507fb38780ddde1f073d91c150de2696f3f7085883648ba21cc5ef01029cb21d191681836040516107a892919061197c565b60405180910390a15050565b600073ffffffffffffffffffffffffffffffffffffffff166003600085815260200190815260200160002060000160009054906101000a900473ffffffffffffffffffffffffffffffffffffffff1673ffffffffffffffffffffffffffffffffffffffff1614610859576040517f08c379a0000000000000000000000000000000000000000000000000000000008152600401610850906119f1565b60405180910390fd5b600560009054906101000a900473ffffffffffffffffffffffffffffffffffffffff1673ffffffffffffffffffffffffffffffffffffffff166323b872dd3330846040518463ffffffff1660e01b81526004016108b893929190611a11565b6020604051808303816000875af11580156108d7573d6000803e3d6000fd5b505050506040513d601f19601f820116820180604052508101906108fb91906118ba565b61093a576040517f08c379a000000000000000000000000000000000000000000000000000000000815260040161093190611a94565b60405180910390fd5b60004290506040518060c001604052803373ffffffffffffffffffffffffffffffffffffffff1681526020018473ffffffffffffffffffffffffffffffffffffffff168152602001838152602001828152602001600015158152602001600160038111156109ab576109aa611389565b5b8152506003600086815260200190815260200160002060008201518160000160006101000a81548173ffffffffffffffffffffffffffffffffffffffff021916908373ffffffffffffffffffffffffffffffffffffffff16021790555060208201518160010160006101000a81548173ffffffffffffffffffffffffffffffffffffffff021916908373ffffffffffffffffffffffffffffffffffffffff160217905550604082015181600201556060820151816003015560808201518160040160006101000a81548160ff02191690831515021790555060a08201518160040160016101000a81548160ff02191690836003811115610aae57610aad611389565b5b0217905550905050600460003373ffffffffffffffffffffffffffffffffffffffff1673ffffffffffffffffffffffffffffffffffffffff1681526020019081526020016000208490806001815401808255809150506001900390600052602060002001600090919091909150557f5aa8f193b1e3d39219f576507abb963f6683db57234d0de20d38af671e7e1b5484338484604051610b519493929190611ab4565b60405180910390a150505050565b6000600154905090565b60008054906101000a900473ffffffffffffffffffffffffffffffffffffffff1681565b600560009054906101000a900473ffffffffffffffffffffffffffffffffffffffff1681565b60006003600083815260200190815260200160002090508060000160009054906101000a900473ffffffffffffffffffffffffffffffffffffffff1673ffffffffffffffffffffffffffffffffffffffff163373ffffffffffffffffffffffffffffffffffffffff161480610c7757508060010160009054906101000a900473ffffffffffffffffffffffffffffffffffffffff1673ffffffffffffffffffffffffffffffffffffffff163373ffffffffffffffffffffffffffffffffffffffff16145b610cb6576040517f08c379a0000000000000000000000000000000000000000000000000000000008152600401610cad90611b45565b60405180910390fd5b60038160040160016101000a81548160ff02191690836003811115610cde57610cdd611389565b5b0217905550600560009054906101000a900473ffffffffffffffffffffffffffffffffffffffff1673ffffffffffffffffffffffffffffffffffffffff1663a9059cbb8260010160009054906101000a900473ffffffffffffffffffffffffffffffffffffffff1683600201546040518363ffffffff1660e01b8152600401610d68929190611865565b6020604051808303816000875af1158015610d87573d6000803e3d6000fd5b505050506040513d601f19601f82011682018060405250810190610dab91906118ba565b610dea576040517f08c379a0000000000000000000000000000000000000000000000000000000008152600401610de190611bd7565b60405180910390fd5b7fb17f281799264da36ce0121b71ef89948a9e0f0e7ee16a7a0eb2e0efec3565f0826003604051610e1c929190611bf7565b60405180910390a15050565b60008054906101000a900473ffffffffffffffffffffffffffffffffffffffff1673ffffffffffffffffffffffffffffffffffffffff163373ffffffffffffffffffffffffffffffffffffffff1614610eb6576040517f08c379a0000000000000000000000000000000000000000000000000000000008152600401610ead90611747565b60405180910390fd5b600073ffffffffffffffffffffffffffffffffffffffff168173ffffffffffffffffffffffffffffffffffffffff1603610f25576040517f08c379a0000000000000000000000000000000000000000000000000000000008152600401610f1c90611c6c565b60405180910390fd5b60008060009054906101000a900473ffffffffffffffffffffffffffffffffffffffff169050816000806101000a81548173ffffffffffffffffffffffffffffffffffffffff021916908373ffffffffffffffffffffffffffffffffffffffff1602179055508173ffffffffffffffffffffffffffffffffffffffff168173ffffffffffffffffffffffffffffffffffffffff167f8be0079c531659141344cd1fd0a4f28419497f9722a3daafe3b4186f6b6457e060405160405180910390a35050565b60008054906101000a900473ffffffffffffffffffffffffffffffffffffffff1673ffffffffffffffffffffffffffffffffffffffff163373ffffffffffffffffffffffffffffffffffffffff1614611077576040517f08c379a000000000000000000000000000000000000000000000000000000000815260040161106e90611747565b60405180910390fd5b60006002549050816002819055507f3253faef925ec13dd94699e696f588deca6a0779d769ef935c2ff6e3f11298f681836040516110b692919061197c565b60405180910390a15050565b6110ca611240565b600360008381526020019081526020016000206040518060c00160405290816000820160009054906101000a900473ffffffffffffffffffffffffffffffffffffffff1673ffffffffffffffffffffffffffffffffffffffff1673ffffffffffffffffffffffffffffffffffffffff1681526020016001820160009054906101000a900473ffffffffffffffffffffffffffffffffffffffff1673ffffffffffffffffffffffffffffffffffffffff1673ffffffffffffffffffffffffffffffffffffffff16815260200160028201548152602001600382015481526020016004820160009054906101000a900460ff161515151581526020016004820160019054906101000a900460ff1660038111156111e8576111e7611389565b5b60038111156111fa576111f9611389565b5b815250509050919050565b6004602052816000526040600020818154811061122157600080fd5b90600052602060002001600091509150505481565b6000600254905090565b6040518060c00160405280600073ffffffffffffffffffffffffffffffffffffffff168152602001600073ffffffffffffffffffffffffffffffffffffffff1681526020016000815260200160008152602001600015158152602001600060038111156112b0576112af611389565b5b81525090565b600080fd5b6000819050919050565b6112ce816112bb565b81146112d957600080fd5b50565b6000813590506112eb816112c5565b92915050565b600060208284031215611307576113066112b6565b5b6000611315848285016112dc565b91505092915050565b600073ffffffffffffffffffffffffffffffffffffffff82169050919050565b60006113498261131e565b9050919050565b6113598161133e565b82525050565b611368816112bb565b82525050565b60008115159050919050565b6113838161136e565b82525050565b7f4e487b7100000000000000000000000000000000000000000000000000000000600052602160045260246000fd5b600481106113c9576113c8611389565b5b50565b60008190506113da826113b8565b919050565b60006113ea826113cc565b9050919050565b6113fa816113df565b82525050565b600060c0820190506114156000830189611350565b6114226020830188611350565b61142f604083018761135f565b61143c606083018661135f565b611449608083018561137a565b61145660a08301846113f1565b979650505050505050565b61146a8161133e565b811461147557600080fd5b50565b60008135905061148781611461565b92915050565b6000602082840312156114a3576114a26112b6565b5b60006114b184828501611478565b91505092915050565b60006020820190506114cf600083018461137a565b92915050565b6000806000606084860312156114ee576114ed6112b6565b5b60006114fc868287016112dc565b935050602061150d86828701611478565b925050604061151e868287016112dc565b9150509250925092565b600060208201905061153d600083018461135f565b92915050565b60006020820190506115586000830184611350565b92915050565b6000819050919050565b600061158361157e6115798461131e565b61155e565b61131e565b9050919050565b600061159582611568565b9050919050565b60006115a78261158a565b9050919050565b6115b78161159c565b82525050565b60006020820190506115d260008301846115ae565b92915050565b6115e18161133e565b82525050565b6115f0816112bb565b82525050565b6115ff8161136e565b82525050565b61160e816113df565b82525050565b60c08201600082015161162a60008501826115d8565b50602082015161163d60208501826115d8565b50604082015161165060408501826115e7565b50606082015161166360608501826115e7565b50608082015161167660808501826115f6565b5060a082015161168960a0850182611605565b50505050565b600060c0820190506116a46000830184611614565b92915050565b600080604083850312156116c1576116c06112b6565b5b60006116cf85828601611478565b92505060206116e0858286016112dc565b9150509250929050565b600082825260208201905092915050565b7f43616c6c6572206973206e6f7420746865206f776e6572000000000000000000600082015250565b60006117316017836116ea565b915061173c826116fb565b602082019050919050565b6000602082019050818103600083015261176081611724565b9050919050565b7f43616c6c6572206973206e6f7420617574686f72697a65642e204f6e6c79206360008201527f6c69656e742063616e20726566756e642e000000000000000000000000000000602082015250565b60006117c36031836116ea565b91506117ce82611767565b604082019050919050565b600060208201905081810360008301526117f2816117b6565b9050919050565b7f4a6f6220697320616c726561647920726566756e646564000000000000000000600082015250565b600061182f6017836116ea565b915061183a826117f9565b602082019050919050565b6000602082019050818103600083015261185e81611822565b9050919050565b600060408201905061187a6000830185611350565b611887602083018461135f565b9392505050565b6118978161136e565b81146118a257600080fd5b50565b6000815190506118b48161188e565b92915050565b6000602082840312156118d0576118cf6112b6565b5b60006118de848285016118a5565b91505092915050565b7f546f6b656e20726566756e64206661696c656400000000000000000000000000600082015250565b600061191d6013836116ea565b9150611928826118e7565b602082019050919050565b6000602082019050818103600083015261194c81611910565b9050919050565b6000604082019050611968600083018561135f565b611975602083018461137a565b9392505050565b6000604082019050611991600083018561135f565b61199e602083018461135f565b9392505050565b7f4a6f6220494420616c7265616479207573656400000000000000000000000000600082015250565b60006119db6013836116ea565b91506119e6826119a5565b602082019050919050565b60006020820190508181036000830152611a0a816119ce565b9050919050565b6000606082019050611a266000830186611350565b611a336020830185611350565b611a40604083018461135f565b949350505050565b7f546f6b656e207472616e73666572206661696c65640000000000000000000000600082015250565b6000611a7e6015836116ea565b9150611a8982611a48565b602082019050919050565b60006020820190508181036000830152611aad81611a71565b9050919050565b6000608082019050611ac9600083018761135f565b611ad66020830186611350565b611ae3604083018561135f565b611af0606083018461135f565b95945050505050565b7f43616c6c6572206973206e6f7420617574686f72697a65640000000000000000600082015250565b6000611b2f6018836116ea565b9150611b3a82611af9565b602082019050919050565b60006020820190508181036000830152611b5e81611b22565b9050919050565b7f546f6b656e207472616e7366657220746f20667265656c616e6365722066616960008201527f6c65640000000000000000000000000000000000000000000000000000000000602082015250565b6000611bc16023836116ea565b9150611bcc82611b65565b604082019050919050565b60006020820190508181036000830152611bf081611bb4565b9050919050565b6000604082019050611c0c600083018561135f565b611c1960208301846113f1565b9392505050565b7f4e6577206f776e657220697320746865207a65726f2061646472657373000000600082015250565b6000611c56601d836116ea565b9150611c6182611c20565b602082019050919050565b60006020820190508181036000830152611c8581611c49565b905091905056fea264697066735822122078a0090183834b7c9fb40314cb491f03a274b318cb0f636c3f7cd331dcb6a41764736f6c63430008180033",
  "linkReferences": {},
  "deployedLinkReferences": {}
}